{
  "_format": "hh-sol-artifact-1",
  "contractName": "TokenCreation",
  "sourceName": "contracts/TokenCreation.sol",
  "abi": [
    {
      "inputs": [],
      "stateMutability": "nonpayable",
      "type": "constructor"
    },
    {
      "anonymous": false,
      "inputs": [
        {
          "indexed": true,
          "internalType": "address",
          "name": "account",
          "type": "address"
        },
        {
          "indexed": true,
          "internalType": "address",
          "name": "operator",
          "type": "address"
        },
        {
          "indexed": false,
          "internalType": "bool",
          "name": "approved",
          "type": "bool"
        }
      ],
      "name": "ApprovalForAll",
      "type": "event"
    },
    {
      "anonymous": false,
      "inputs": [
        {
          "indexed": true,
          "internalType": "address",
          "name": "operator",
          "type": "address"
        },
        {
          "indexed": true,
          "internalType": "address",
          "name": "from",
          "type": "address"
        },
        {
          "indexed": true,
          "internalType": "address",
          "name": "to",
          "type": "address"
        },
        {
          "indexed": false,
          "internalType": "uint256[]",
          "name": "ids",
          "type": "uint256[]"
        },
        {
          "indexed": false,
          "internalType": "uint256[]",
          "name": "values",
          "type": "uint256[]"
        }
      ],
      "name": "TransferBatch",
      "type": "event"
    },
    {
      "anonymous": false,
      "inputs": [
        {
          "indexed": true,
          "internalType": "address",
          "name": "operator",
          "type": "address"
        },
        {
          "indexed": true,
          "internalType": "address",
          "name": "from",
          "type": "address"
        },
        {
          "indexed": true,
          "internalType": "address",
          "name": "to",
          "type": "address"
        },
        {
          "indexed": false,
          "internalType": "uint256",
          "name": "id",
          "type": "uint256"
        },
        {
          "indexed": false,
          "internalType": "uint256",
          "name": "value",
          "type": "uint256"
        }
      ],
      "name": "TransferSingle",
      "type": "event"
    },
    {
      "anonymous": false,
      "inputs": [
        {
          "indexed": false,
          "internalType": "string",
          "name": "value",
          "type": "string"
        },
        {
          "indexed": true,
          "internalType": "uint256",
          "name": "id",
          "type": "uint256"
        }
      ],
      "name": "URI",
      "type": "event"
    },
    {
      "inputs": [
        {
          "internalType": "address",
          "name": "account",
          "type": "address"
        },
        {
          "internalType": "uint256",
          "name": "id",
          "type": "uint256"
        }
      ],
      "name": "balanceOf",
      "outputs": [
        {
          "internalType": "uint256",
          "name": "",
          "type": "uint256"
        }
      ],
      "stateMutability": "view",
      "type": "function"
    },
    {
      "inputs": [
        {
          "internalType": "address[]",
          "name": "accounts",
          "type": "address[]"
        },
        {
          "internalType": "uint256[]",
          "name": "ids",
          "type": "uint256[]"
        }
      ],
      "name": "balanceOfBatch",
      "outputs": [
        {
          "internalType": "uint256[]",
          "name": "",
          "type": "uint256[]"
        }
      ],
      "stateMutability": "view",
      "type": "function"
    },
    {
      "inputs": [],
      "name": "data1",
      "outputs": [
        {
          "internalType": "uint256",
          "name": "",
          "type": "uint256"
        }
      ],
      "stateMutability": "view",
      "type": "function"
    },
    {
      "inputs": [],
      "name": "data2",
      "outputs": [
        {
          "internalType": "uint256",
          "name": "",
          "type": "uint256"
        }
      ],
      "stateMutability": "view",
      "type": "function"
    },
    {
      "inputs": [
        {
          "internalType": "address",
          "name": "account",
          "type": "address"
        },
        {
          "internalType": "address",
          "name": "operator",
          "type": "address"
        }
      ],
      "name": "isApprovedForAll",
      "outputs": [
        {
          "internalType": "bool",
          "name": "",
          "type": "bool"
        }
      ],
      "stateMutability": "view",
      "type": "function"
    },
    {
      "inputs": [
        {
          "internalType": "address",
          "name": "to",
          "type": "address"
        },
        {
          "internalType": "uint256[]",
          "name": "initalBatchSupply",
          "type": "uint256[]"
        },
        {
          "internalType": "string",
          "name": "newuri",
          "type": "string"
        }
      ],
      "name": "mintBatchToken",
      "outputs": [],
      "stateMutability": "nonpayable",
      "type": "function"
    },
    {
      "inputs": [
        {
          "internalType": "address",
          "name": "to",
          "type": "address"
        },
        {
          "internalType": "uint256",
          "name": "initalSupply",
          "type": "uint256"
        },
        {
          "internalType": "string",
          "name": "newuri",
          "type": "string"
        }
      ],
      "name": "mintToken",
      "outputs": [],
      "stateMutability": "nonpayable",
      "type": "function"
    },
    {
      "inputs": [
        {
          "internalType": "address",
          "name": "from",
          "type": "address"
        },
        {
          "internalType": "address",
          "name": "to",
          "type": "address"
        },
        {
          "internalType": "uint256[]",
          "name": "ids",
          "type": "uint256[]"
        },
        {
          "internalType": "uint256[]",
          "name": "amounts",
          "type": "uint256[]"
        },
        {
          "internalType": "bytes",
          "name": "data",
          "type": "bytes"
        }
      ],
      "name": "safeBatchTransferFrom",
      "outputs": [],
      "stateMutability": "nonpayable",
      "type": "function"
    },
    {
      "inputs": [
        {
          "internalType": "address",
          "name": "from",
          "type": "address"
        },
        {
          "internalType": "address",
          "name": "to",
          "type": "address"
        },
        {
          "internalType": "uint256",
          "name": "id",
          "type": "uint256"
        },
        {
          "internalType": "uint256",
          "name": "amount",
          "type": "uint256"
        },
        {
          "internalType": "bytes",
          "name": "data",
          "type": "bytes"
        }
      ],
      "name": "safeTransferFrom",
      "outputs": [],
      "stateMutability": "nonpayable",
      "type": "function"
    },
    {
      "inputs": [
        {
          "internalType": "address",
          "name": "operator",
          "type": "address"
        },
        {
          "internalType": "bool",
          "name": "approved",
          "type": "bool"
        }
      ],
      "name": "setApprovalForAll",
      "outputs": [],
      "stateMutability": "nonpayable",
      "type": "function"
    },
    {
      "inputs": [
        {
          "internalType": "bytes4",
          "name": "interfaceId",
          "type": "bytes4"
        }
      ],
      "name": "supportsInterface",
      "outputs": [
        {
          "internalType": "bool",
          "name": "",
          "type": "bool"
        }
      ],
      "stateMutability": "view",
      "type": "function"
    },
    {
      "inputs": [
        {
          "internalType": "uint256",
          "name": "",
          "type": "uint256"
        }
      ],
      "name": "uri",
      "outputs": [
        {
          "internalType": "string",
          "name": "",
          "type": "string"
        }
      ],
      "stateMutability": "view",
      "type": "function"
    }
  ],
  "bytecode": "0x6080604052604051806040016040528060018152602001600281525060039060026200002d9291906200008f565b5060036004553480156200004057600080fd5b506040518060800160405280604d815260200162002f9f604d91396200006c816200007360201b60201c565b50620001f6565b80600290805190602001906200008b929190620000e1565b5050565b828054828255906000526020600020908101928215620000ce579160200282015b82811115620000cd578251825591602001919060010190620000b0565b5b509050620000dd919062000172565b5090565b828054620000ef9062000191565b90600052602060002090601f0160209004810192826200011357600085556200015f565b82601f106200012e57805160ff19168380011785556200015f565b828001600101855582156200015f579182015b828111156200015e57825182559160200191906001019062000141565b5b5090506200016e919062000172565b5090565b5b808211156200018d57600081600090555060010162000173565b5090565b60006002820490506001821680620001aa57607f821691505b60208210811415620001c157620001c0620001c7565b5b50919050565b7f4e487b7100000000000000000000000000000000000000000000000000000000600052602260045260246000fd5b612d9980620002066000396000f3fe608060405234801561001057600080fd5b50600436106100b35760003560e01c80639ffd85c4116100715780639ffd85c4146101b0578063a22cb465146101ce578063e3a7fd75146101ea578063e985e9c514610208578063f242432a14610238578063f76e8ba914610254576100b3565b8062fdd58e146100b857806301ffc9a7146100e85780630e89341c146101185780632eb2c2d6146101485780634e1273f4146101645780635f3da6b314610194575b600080fd5b6100d260048036038101906100cd9190611eb9565b610270565b6040516100df9190612881565b60405180910390f35b61010260048036038101906100fd9190611fc8565b610339565b60405161010f91906126e4565b60405180910390f35b610132600480360381019061012d919061201a565b61041b565b60405161013f91906126ff565b60405180910390f35b610162600480360381019061015d9190611cb0565b6104af565b005b61017e60048036038101906101799190611f5c565b610550565b60405161018b919061268b565b60405180910390f35b6101ae60048036038101906101a99190611dfe565b610701565b005b6101b861077a565b6040516101c59190612881565b60405180910390f35b6101e860048036038101906101e39190611e7d565b61077f565b005b6101f2610900565b6040516101ff9190612881565b60405180910390f35b610222600480360381019061021d9190611c74565b610905565b60405161022f91906126e4565b60405180910390f35b610252600480360381019061024d9190611d6f565b610999565b005b61026e60048036038101906102699190611ef5565b610a3a565b005b60008073ffffffffffffffffffffffffffffffffffffffff168373ffffffffffffffffffffffffffffffffffffffff1614156102e1576040517f08c379a00000000000000000000000000000000000000000000000000000000081526004016102d890612761565b60405180910390fd5b60008083815260200190815260200160002060008473ffffffffffffffffffffffffffffffffffffffff1673ffffffffffffffffffffffffffffffffffffffff16815260200190815260200160002054905092915050565b60007fd9b67a26000000000000000000000000000000000000000000000000000000007bffffffffffffffffffffffffffffffffffffffffffffffffffffffff1916827bffffffffffffffffffffffffffffffffffffffffffffffffffffffff1916148061040457507f0e89341c000000000000000000000000000000000000000000000000000000007bffffffffffffffffffffffffffffffffffffffffffffffffffffffff1916827bffffffffffffffffffffffffffffffffffffffffffffffffffffffff1916145b80610414575061041382610a7d565b5b9050919050565b60606002805461042a90612b2b565b80601f016020809104026020016040519081016040528092919081815260200182805461045690612b2b565b80156104a35780601f10610478576101008083540402835291602001916104a3565b820191906000526020600020905b81548152906001019060200180831161048657829003601f168201915b50505050509050919050565b6104b7610ae7565b73ffffffffffffffffffffffffffffffffffffffff168573ffffffffffffffffffffffffffffffffffffffff1614806104fd57506104fc856104f7610ae7565b610905565b5b61053c576040517f08c379a0000000000000000000000000000000000000000000000000000000008152600401610533906127c1565b60405180910390fd5b6105498585858585610aef565b5050505050565b60608151835114610596576040517f08c379a000000000000000000000000000000000000000000000000000000000815260040161058d90612821565b60405180910390fd5b6000835167ffffffffffffffff8111156105d9577f4e487b7100000000000000000000000000000000000000000000000000000000600052604160045260246000fd5b6040519080825280602002602001820160405280156106075781602001602082028036833780820191505090505b50905060005b84518110156106f6576106a0858281518110610652577f4e487b7100000000000000000000000000000000000000000000000000000000600052603260045260246000fd5b6020026020010151858381518110610693577f4e487b7100000000000000000000000000000000000000000000000000000000600052603260045260246000fd5b6020026020010151610270565b8282815181106106d9577f4e487b7100000000000000000000000000000000000000000000000000000000600052603260045260246000fd5b602002602001018181525050806106ef90612b5d565b905061060d565b508091505092915050565b61076c83600380548060200260200160405190810160405280929190818152602001828054801561075157602002820191906000526020600020905b81548152602001906001019080831161073d575b50505050508460405180602001604052806000815250610e4f565b610775816110b9565b505050565b600181565b8173ffffffffffffffffffffffffffffffffffffffff1661079e610ae7565b73ffffffffffffffffffffffffffffffffffffffff1614156107f5576040517f08c379a00000000000000000000000000000000000000000000000000000000081526004016107ec90612801565b60405180910390fd5b8060016000610802610ae7565b73ffffffffffffffffffffffffffffffffffffffff1673ffffffffffffffffffffffffffffffffffffffff16815260200190815260200160002060008473ffffffffffffffffffffffffffffffffffffffff1673ffffffffffffffffffffffffffffffffffffffff16815260200190815260200160002060006101000a81548160ff0219169083151502179055508173ffffffffffffffffffffffffffffffffffffffff166108af610ae7565b73ffffffffffffffffffffffffffffffffffffffff167f17307eab39ab6107e8899845ad3d59bd9653f200f220920489ca2b5937696c31836040516108f491906126e4565b60405180910390a35050565b600281565b6000600160008473ffffffffffffffffffffffffffffffffffffffff1673ffffffffffffffffffffffffffffffffffffffff16815260200190815260200160002060008373ffffffffffffffffffffffffffffffffffffffff1673ffffffffffffffffffffffffffffffffffffffff16815260200190815260200160002060009054906101000a900460ff16905092915050565b6109a1610ae7565b73ffffffffffffffffffffffffffffffffffffffff168573ffffffffffffffffffffffffffffffffffffffff1614806109e757506109e6856109e1610ae7565b610905565b5b610a26576040517f08c379a0000000000000000000000000000000000000000000000000000000008152600401610a1d90612781565b60405180910390fd5b610a3385858585856110d3565b5050505050565b610a57836004548460405180602001604052806000815250611355565b60046000815480929190610a6a90612b5d565b9190505550610a78816110b9565b505050565b60007f01ffc9a7000000000000000000000000000000000000000000000000000000007bffffffffffffffffffffffffffffffffffffffffffffffffffffffff1916827bffffffffffffffffffffffffffffffffffffffffffffffffffffffff1916149050919050565b600033905090565b8151835114610b33576040517f08c379a0000000000000000000000000000000000000000000000000000000008152600401610b2a90612841565b60405180910390fd5b600073ffffffffffffffffffffffffffffffffffffffff168473ffffffffffffffffffffffffffffffffffffffff161415610ba3576040517f08c379a0000000000000000000000000000000000000000000000000000000008152600401610b9a906127a1565b60405180910390fd5b6000610bad610ae7565b9050610bbd8187878787876114eb565b60005b8451811015610dba576000858281518110610c04577f4e487b7100000000000000000000000000000000000000000000000000000000600052603260045260246000fd5b602002602001015190506000858381518110610c49577f4e487b7100000000000000000000000000000000000000000000000000000000600052603260045260246000fd5b60200260200101519050600080600084815260200190815260200160002060008b73ffffffffffffffffffffffffffffffffffffffff1673ffffffffffffffffffffffffffffffffffffffff16815260200190815260200160002054905081811015610cea576040517f08c379a0000000000000000000000000000000000000000000000000000000008152600401610ce1906127e1565b60405180910390fd5b81810360008085815260200190815260200160002060008c73ffffffffffffffffffffffffffffffffffffffff1673ffffffffffffffffffffffffffffffffffffffff168152602001908152602001600020819055508160008085815260200190815260200160002060008b73ffffffffffffffffffffffffffffffffffffffff1673ffffffffffffffffffffffffffffffffffffffff1681526020019081526020016000206000828254610d9f9190612a1f565b9250508190555050505080610db390612b5d565b9050610bc0565b508473ffffffffffffffffffffffffffffffffffffffff168673ffffffffffffffffffffffffffffffffffffffff168273ffffffffffffffffffffffffffffffffffffffff167f4a39dc06d4c0dbc64b70af90fd698a233a518aa5d07e595d983b8c0526c8f7fb8787604051610e319291906126ad565b60405180910390a4610e478187878787876114f3565b505050505050565b600073ffffffffffffffffffffffffffffffffffffffff168473ffffffffffffffffffffffffffffffffffffffff161415610ebf576040517f08c379a0000000000000000000000000000000000000000000000000000000008152600401610eb690612861565b60405180910390fd5b8151835114610f03576040517f08c379a0000000000000000000000000000000000000000000000000000000008152600401610efa90612841565b60405180910390fd5b6000610f0d610ae7565b9050610f1e816000878787876114eb565b60005b845181101561102357838181518110610f63577f4e487b7100000000000000000000000000000000000000000000000000000000600052603260045260246000fd5b6020026020010151600080878481518110610fa7577f4e487b7100000000000000000000000000000000000000000000000000000000600052603260045260246000fd5b6020026020010151815260200190815260200160002060008873ffffffffffffffffffffffffffffffffffffffff1673ffffffffffffffffffffffffffffffffffffffff16815260200190815260200160002060008282546110099190612a1f565b92505081905550808061101b90612b5d565b915050610f21565b508473ffffffffffffffffffffffffffffffffffffffff16600073ffffffffffffffffffffffffffffffffffffffff168273ffffffffffffffffffffffffffffffffffffffff167f4a39dc06d4c0dbc64b70af90fd698a233a518aa5d07e595d983b8c0526c8f7fb878760405161109b9291906126ad565b60405180910390a46110b2816000878787876114f3565b5050505050565b80600290805190602001906110cf92919061196c565b5050565b600073ffffffffffffffffffffffffffffffffffffffff168473ffffffffffffffffffffffffffffffffffffffff161415611143576040517f08c379a000000000000000000000000000000000000000000000000000000000815260040161113a906127a1565b60405180910390fd5b600061114d610ae7565b905061116d81878761115e886116c3565b611167886116c3565b876114eb565b600080600086815260200190815260200160002060008873ffffffffffffffffffffffffffffffffffffffff1673ffffffffffffffffffffffffffffffffffffffff16815260200190815260200160002054905083811015611204576040517f08c379a00000000000000000000000000000000000000000000000000000000081526004016111fb906127e1565b60405180910390fd5b83810360008087815260200190815260200160002060008973ffffffffffffffffffffffffffffffffffffffff1673ffffffffffffffffffffffffffffffffffffffff168152602001908152602001600020819055508360008087815260200190815260200160002060008873ffffffffffffffffffffffffffffffffffffffff1673ffffffffffffffffffffffffffffffffffffffff16815260200190815260200160002060008282546112b99190612a1f565b925050819055508573ffffffffffffffffffffffffffffffffffffffff168773ffffffffffffffffffffffffffffffffffffffff168373ffffffffffffffffffffffffffffffffffffffff167fc3d58168c5ae7397731d063d5bbf3d657854427343f4c083240f7aacaa2d0f62888860405161133692919061289c565b60405180910390a461134c828888888888611789565b50505050505050565b600073ffffffffffffffffffffffffffffffffffffffff168473ffffffffffffffffffffffffffffffffffffffff1614156113c5576040517f08c379a00000000000000000000000000000000000000000000000000000000081526004016113bc90612861565b60405180910390fd5b60006113cf610ae7565b90506113f0816000876113e1886116c3565b6113ea886116c3565b876114eb565b8260008086815260200190815260200160002060008773ffffffffffffffffffffffffffffffffffffffff1673ffffffffffffffffffffffffffffffffffffffff168152602001908152602001600020600082825461144f9190612a1f565b925050819055508473ffffffffffffffffffffffffffffffffffffffff16600073ffffffffffffffffffffffffffffffffffffffff168273ffffffffffffffffffffffffffffffffffffffff167fc3d58168c5ae7397731d063d5bbf3d657854427343f4c083240f7aacaa2d0f6287876040516114cd92919061289c565b60405180910390a46114e481600087878787611789565b5050505050565b505050505050565b6115128473ffffffffffffffffffffffffffffffffffffffff16611959565b156116bb578373ffffffffffffffffffffffffffffffffffffffff1663bc197c8187878686866040518663ffffffff1660e01b81526004016115589594939291906125c9565b602060405180830381600087803b15801561157257600080fd5b505af19250505080156115a357506040513d601f19601f820116820180604052508101906115a09190611ff1565b60015b611632576115af612c51565b806115ba57506115f7565b806040517f08c379a00000000000000000000000000000000000000000000000000000000081526004016115ee91906126ff565b60405180910390fd5b6040517f08c379a000000000000000000000000000000000000000000000000000000000815260040161162990612721565b60405180910390fd5b63bc197c8160e01b7bffffffffffffffffffffffffffffffffffffffffffffffffffffffff1916817bffffffffffffffffffffffffffffffffffffffffffffffffffffffff1916146116b9576040517f08c379a00000000000000000000000000000000000000000000000000000000081526004016116b090612741565b60405180910390fd5b505b505050505050565b60606000600167ffffffffffffffff811115611708577f4e487b7100000000000000000000000000000000000000000000000000000000600052604160045260246000fd5b6040519080825280602002602001820160405280156117365781602001602082028036833780820191505090505b5090508281600081518110611774577f4e487b7100000000000000000000000000000000000000000000000000000000600052603260045260246000fd5b60200260200101818152505080915050919050565b6117a88473ffffffffffffffffffffffffffffffffffffffff16611959565b15611951578373ffffffffffffffffffffffffffffffffffffffff1663f23a6e6187878686866040518663ffffffff1660e01b81526004016117ee959493929190612631565b602060405180830381600087803b15801561180857600080fd5b505af192505050801561183957506040513d601f19601f820116820180604052508101906118369190611ff1565b60015b6118c857611845612c51565b80611850575061188d565b806040517f08c379a000000000000000000000000000000000000000000000000000000000815260040161188491906126ff565b60405180910390fd5b6040517f08c379a00000000000000000000000000000000000000000000000000000000081526004016118bf90612721565b60405180910390fd5b63f23a6e6160e01b7bffffffffffffffffffffffffffffffffffffffffffffffffffffffff1916817bffffffffffffffffffffffffffffffffffffffffffffffffffffffff19161461194f576040517f08c379a000000000000000000000000000000000000000000000000000000000815260040161194690612741565b60405180910390fd5b505b505050505050565b600080823b905060008111915050919050565b82805461197890612b2b565b90600052602060002090601f01602090048101928261199a57600085556119e1565b82601f106119b357805160ff19168380011785556119e1565b828001600101855582156119e1579182015b828111156119e05782518255916020019190600101906119c5565b5b5090506119ee91906119f2565b5090565b5b80821115611a0b5760008160009055506001016119f3565b5090565b6000611a22611a1d846128f6565b6128c5565b90508083825260208201905082856020860282011115611a4157600080fd5b60005b85811015611a715781611a578882611b63565b845260208401935060208301925050600181019050611a44565b5050509392505050565b6000611a8e611a8984612922565b6128c5565b90508083825260208201905082856020860282011115611aad57600080fd5b60005b85811015611add5781611ac38882611c5f565b845260208401935060208301925050600181019050611ab0565b5050509392505050565b6000611afa611af58461294e565b6128c5565b905082815260208101848484011115611b1257600080fd5b611b1d848285612ae9565b509392505050565b6000611b38611b338461297e565b6128c5565b905082815260208101848484011115611b5057600080fd5b611b5b848285612ae9565b509392505050565b600081359050611b7281612d07565b92915050565b600082601f830112611b8957600080fd5b8135611b99848260208601611a0f565b91505092915050565b600082601f830112611bb357600080fd5b8135611bc3848260208601611a7b565b91505092915050565b600081359050611bdb81612d1e565b92915050565b600081359050611bf081612d35565b92915050565b600081519050611c0581612d35565b92915050565b600082601f830112611c1c57600080fd5b8135611c2c848260208601611ae7565b91505092915050565b600082601f830112611c4657600080fd5b8135611c56848260208601611b25565b91505092915050565b600081359050611c6e81612d4c565b92915050565b60008060408385031215611c8757600080fd5b6000611c9585828601611b63565b9250506020611ca685828601611b63565b9150509250929050565b600080600080600060a08688031215611cc857600080fd5b6000611cd688828901611b63565b9550506020611ce788828901611b63565b945050604086013567ffffffffffffffff811115611d0457600080fd5b611d1088828901611ba2565b935050606086013567ffffffffffffffff811115611d2d57600080fd5b611d3988828901611ba2565b925050608086013567ffffffffffffffff811115611d5657600080fd5b611d6288828901611c0b565b9150509295509295909350565b600080600080600060a08688031215611d8757600080fd5b6000611d9588828901611b63565b9550506020611da688828901611b63565b9450506040611db788828901611c5f565b9350506060611dc888828901611c5f565b925050608086013567ffffffffffffffff811115611de557600080fd5b611df188828901611c0b565b9150509295509295909350565b600080600060608486031215611e1357600080fd5b6000611e2186828701611b63565b935050602084013567ffffffffffffffff811115611e3e57600080fd5b611e4a86828701611ba2565b925050604084013567ffffffffffffffff811115611e6757600080fd5b611e7386828701611c35565b9150509250925092565b60008060408385031215611e9057600080fd5b6000611e9e85828601611b63565b9250506020611eaf85828601611bcc565b9150509250929050565b60008060408385031215611ecc57600080fd5b6000611eda85828601611b63565b9250506020611eeb85828601611c5f565b9150509250929050565b600080600060608486031215611f0a57600080fd5b6000611f1886828701611b63565b9350506020611f2986828701611c5f565b925050604084013567ffffffffffffffff811115611f4657600080fd5b611f5286828701611c35565b9150509250925092565b60008060408385031215611f6f57600080fd5b600083013567ffffffffffffffff811115611f8957600080fd5b611f9585828601611b78565b925050602083013567ffffffffffffffff811115611fb257600080fd5b611fbe85828601611ba2565b9150509250929050565b600060208284031215611fda57600080fd5b6000611fe884828501611be1565b91505092915050565b60006020828403121561200357600080fd5b600061201184828501611bf6565b91505092915050565b60006020828403121561202c57600080fd5b600061203a84828501611c5f565b91505092915050565b600061204f83836125ab565b60208301905092915050565b61206481612a75565b82525050565b6000612075826129be565b61207f81856129ec565b935061208a836129ae565b8060005b838110156120bb5781516120a28882612043565b97506120ad836129df565b92505060018101905061208e565b5085935050505092915050565b6120d181612a87565b82525050565b60006120e2826129c9565b6120ec81856129fd565b93506120fc818560208601612af8565b61210581612c33565b840191505092915050565b600061211b826129d4565b6121258185612a0e565b9350612135818560208601612af8565b61213e81612c33565b840191505092915050565b6000612156603483612a0e565b91507f455243313135353a207472616e7366657220746f206e6f6e204552433131353560008301527f526563656976657220696d706c656d656e7465720000000000000000000000006020830152604082019050919050565b60006121bc602883612a0e565b91507f455243313135353a204552433131353552656365697665722072656a6563746560008301527f6420746f6b656e730000000000000000000000000000000000000000000000006020830152604082019050919050565b6000612222602b83612a0e565b91507f455243313135353a2062616c616e636520717565727920666f7220746865207a60008301527f65726f20616464726573730000000000000000000000000000000000000000006020830152604082019050919050565b6000612288602983612a0e565b91507f455243313135353a2063616c6c6572206973206e6f74206f776e6572206e6f7260008301527f20617070726f76656400000000000000000000000000000000000000000000006020830152604082019050919050565b60006122ee602583612a0e565b91507f455243313135353a207472616e7366657220746f20746865207a65726f20616460008301527f64726573730000000000000000000000000000000000000000000000000000006020830152604082019050919050565b6000612354603283612a0e565b91507f455243313135353a207472616e736665722063616c6c6572206973206e6f742060008301527f6f776e6572206e6f7220617070726f76656400000000000000000000000000006020830152604082019050919050565b60006123ba602a83612a0e565b91507f455243313135353a20696e73756666696369656e742062616c616e636520666f60008301527f72207472616e73666572000000000000000000000000000000000000000000006020830152604082019050919050565b6000612420602983612a0e565b91507f455243313135353a2073657474696e6720617070726f76616c2073746174757360008301527f20666f722073656c6600000000000000000000000000000000000000000000006020830152604082019050919050565b6000612486602983612a0e565b91507f455243313135353a206163636f756e747320616e6420696473206c656e67746860008301527f206d69736d6174636800000000000000000000000000000000000000000000006020830152604082019050919050565b60006124ec602883612a0e565b91507f455243313135353a2069647320616e6420616d6f756e7473206c656e6774682060008301527f6d69736d617463680000000000000000000000000000000000000000000000006020830152604082019050919050565b6000612552602183612a0e565b91507f455243313135353a206d696e7420746f20746865207a65726f2061646472657360008301527f73000000000000000000000000000000000000000000000000000000000000006020830152604082019050919050565b6125b481612adf565b82525050565b6125c381612adf565b82525050565b600060a0820190506125de600083018861205b565b6125eb602083018761205b565b81810360408301526125fd818661206a565b90508181036060830152612611818561206a565b9050818103608083015261262581846120d7565b90509695505050505050565b600060a082019050612646600083018861205b565b612653602083018761205b565b61266060408301866125ba565b61266d60608301856125ba565b818103608083015261267f81846120d7565b90509695505050505050565b600060208201905081810360008301526126a5818461206a565b905092915050565b600060408201905081810360008301526126c7818561206a565b905081810360208301526126db818461206a565b90509392505050565b60006020820190506126f960008301846120c8565b92915050565b600060208201905081810360008301526127198184612110565b905092915050565b6000602082019050818103600083015261273a81612149565b9050919050565b6000602082019050818103600083015261275a816121af565b9050919050565b6000602082019050818103600083015261277a81612215565b9050919050565b6000602082019050818103600083015261279a8161227b565b9050919050565b600060208201905081810360008301526127ba816122e1565b9050919050565b600060208201905081810360008301526127da81612347565b9050919050565b600060208201905081810360008301526127fa816123ad565b9050919050565b6000602082019050818103600083015261281a81612413565b9050919050565b6000602082019050818103600083015261283a81612479565b9050919050565b6000602082019050818103600083015261285a816124df565b9050919050565b6000602082019050818103600083015261287a81612545565b9050919050565b600060208201905061289660008301846125ba565b92915050565b60006040820190506128b160008301856125ba565b6128be60208301846125ba565b9392505050565b6000604051905081810181811067ffffffffffffffff821117156128ec576128eb612c04565b5b8060405250919050565b600067ffffffffffffffff82111561291157612910612c04565b5b602082029050602081019050919050565b600067ffffffffffffffff82111561293d5761293c612c04565b5b602082029050602081019050919050565b600067ffffffffffffffff82111561296957612968612c04565b5b601f19601f8301169050602081019050919050565b600067ffffffffffffffff82111561299957612998612c04565b5b601f19601f8301169050602081019050919050565b6000819050602082019050919050565b600081519050919050565b600081519050919050565b600081519050919050565b6000602082019050919050565b600082825260208201905092915050565b600082825260208201905092915050565b600082825260208201905092915050565b6000612a2a82612adf565b9150612a3583612adf565b9250827fffffffffffffffffffffffffffffffffffffffffffffffffffffffffffffffff03821115612a6a57612a69612ba6565b5b828201905092915050565b6000612a8082612abf565b9050919050565b60008115159050919050565b60007fffffffff0000000000000000000000000000000000000000000000000000000082169050919050565b600073ffffffffffffffffffffffffffffffffffffffff82169050919050565b6000819050919050565b82818337600083830152505050565b60005b83811015612b16578082015181840152602081019050612afb565b83811115612b25576000848401525b50505050565b60006002820490506001821680612b4357607f821691505b60208210811415612b5757612b56612bd5565b5b50919050565b6000612b6882612adf565b91507fffffffffffffffffffffffffffffffffffffffffffffffffffffffffffffffff821415612b9b57612b9a612ba6565b5b600182019050919050565b7f4e487b7100000000000000000000000000000000000000000000000000000000600052601160045260246000fd5b7f4e487b7100000000000000000000000000000000000000000000000000000000600052602260045260246000fd5b7f4e487b7100000000000000000000000000000000000000000000000000000000600052604160045260246000fd5b6000601f19601f8301169050919050565b60008160e01c9050919050565b600060443d1015612c6157612d04565b60046000803e612c72600051612c44565b6308c379a08114612c835750612d04565b60405160043d036004823e80513d602482011167ffffffffffffffff82111715612caf57505050612d04565b808201805167ffffffffffffffff811115612cce575050505050612d04565b8060208301013d8501811115612ce957505050505050612d04565b612cf282612c33565b60208401016040528296505050505050505b90565b612d1081612a75565b8114612d1b57600080fd5b50565b612d2781612a87565b8114612d3257600080fd5b50565b612d3e81612a93565b8114612d4957600080fd5b50565b612d5581612adf565b8114612d6057600080fd5b5056fea26469706673582212202e1d0472866cb48f5867fae4b3670510fb15dfcd59170d11b17991573592688b64736f6c6343000800003368747470733a2f2f697066732e696f2f697066732f516d5865344b727859396562514e546f7875544b4a314a52557274456a5353767a6146727a5731444d6d36554e782f7b69647d2e6a736f6e",
  "linkReferences": {},
  "deployedLinkReferences": {}
}