{
  "_format": "hh-sol-artifact-1",
  "contractName": "NFTContract",
  "sourceName": "contracts/NFTContract.sol",
  "abi": [
    {
      "inputs": [
        {
          "internalType": "uint256",
          "name": "_emissionRate",
          "type": "uint256"
        },
        {
          "internalType": "contract IERC20",
          "name": "_lpToken",
          "type": "address"
        }
      ],
      "stateMutability": "nonpayable",
      "type": "constructor"
    },
    {
      "anonymous": false,
      "inputs": [
        {
          "indexed": true,
          "internalType": "address",
          "name": "sender",
          "type": "address"
        },
        {
          "indexed": false,
          "internalType": "uint256",
          "name": "amount",
          "type": "uint256"
        },
        {
          "indexed": false,
          "internalType": "uint256",
          "name": "lastUpdateTime",
          "type": "uint256"
        }
      ],
      "name": "Deposit",
      "type": "event"
    },
    {
      "anonymous": false,
      "inputs": [
        {
          "indexed": true,
          "internalType": "address",
          "name": "previousOwner",
          "type": "address"
        },
        {
          "indexed": true,
          "internalType": "address",
          "name": "newOwner",
          "type": "address"
        }
      ],
      "name": "OwnershipTransferred",
      "type": "event"
    },
    {
      "inputs": [
        {
          "internalType": "address",
          "name": "contractAddress",
          "type": "address"
        },
        {
          "internalType": "uint256",
          "name": "id",
          "type": "uint256"
        },
        {
          "internalType": "uint256",
          "name": "total",
          "type": "uint256"
        },
        {
          "internalType": "uint256",
          "name": "price",
          "type": "uint256"
        }
      ],
      "name": "addNFT",
      "outputs": [],
      "stateMutability": "nonpayable",
      "type": "function"
    },
    {
      "inputs": [
        {
          "internalType": "uint256",
          "name": "_nftIndex",
          "type": "uint256"
        },
        {
          "internalType": "uint256",
          "name": "_quantity",
          "type": "uint256"
        }
      ],
      "name": "claimNFT",
      "outputs": [],
      "stateMutability": "nonpayable",
      "type": "function"
    },
    {
      "inputs": [
        {
          "internalType": "uint256",
          "name": "_amount",
          "type": "uint256"
        }
      ],
      "name": "deposit",
      "outputs": [],
      "stateMutability": "nonpayable",
      "type": "function"
    },
    {
      "inputs": [],
      "name": "emissionRate",
      "outputs": [
        {
          "internalType": "uint256",
          "name": "",
          "type": "uint256"
        }
      ],
      "stateMutability": "view",
      "type": "function"
    },
    {
      "inputs": [
        {
          "internalType": "uint256",
          "name": "",
          "type": "uint256"
        }
      ],
      "name": "nftInfo",
      "outputs": [
        {
          "internalType": "address",
          "name": "contractAddress",
          "type": "address"
        },
        {
          "internalType": "uint256",
          "name": "id",
          "type": "uint256"
        },
        {
          "internalType": "uint256",
          "name": "remaining",
          "type": "uint256"
        },
        {
          "internalType": "uint256",
          "name": "price",
          "type": "uint256"
        }
      ],
      "stateMutability": "view",
      "type": "function"
    },
    {
      "inputs": [],
      "name": "owner",
      "outputs": [
        {
          "internalType": "address",
          "name": "",
          "type": "address"
        }
      ],
      "stateMutability": "view",
      "type": "function"
    },
    {
      "inputs": [
        {
          "internalType": "address",
          "name": "userAddress",
          "type": "address"
        }
      ],
      "name": "pointsBalance",
      "outputs": [
        {
          "internalType": "uint256",
          "name": "",
          "type": "uint256"
        }
      ],
      "stateMutability": "view",
      "type": "function"
    },
    {
      "inputs": [],
      "name": "renounceOwnership",
      "outputs": [],
      "stateMutability": "nonpayable",
      "type": "function"
    },
    {
      "inputs": [],
      "name": "totalNFT",
      "outputs": [
        {
          "internalType": "uint256",
          "name": "",
          "type": "uint256"
        }
      ],
      "stateMutability": "view",
      "type": "function"
    },
    {
      "inputs": [
        {
          "internalType": "address",
          "name": "newOwner",
          "type": "address"
        }
      ],
      "name": "transferOwnership",
      "outputs": [],
      "stateMutability": "nonpayable",
      "type": "function"
    },
    {
      "inputs": [
        {
          "internalType": "address",
          "name": "",
          "type": "address"
        }
      ],
      "name": "userInfo",
      "outputs": [
        {
          "internalType": "uint256",
          "name": "amount",
          "type": "uint256"
        },
        {
          "internalType": "uint256",
          "name": "lastUpdateTime",
          "type": "uint256"
        },
        {
          "internalType": "uint256",
          "name": "pointsDebt",
          "type": "uint256"
        }
      ],
      "stateMutability": "view",
      "type": "function"
    },
    {
      "inputs": [
        {
          "internalType": "uint256",
          "name": "_amount",
          "type": "uint256"
        }
      ],
      "name": "withdraw",
      "outputs": [],
      "stateMutability": "nonpayable",
      "type": "function"
    },
    {
      "inputs": [],
      "name": "withdrawAll",
      "outputs": [],
      "stateMutability": "nonpayable",
      "type": "function"
    }
  ],
  "bytecode": "0x60806040523480156200001157600080fd5b5060405162001f7538038062001f758339818101604052810190620000379190620001a1565b620000576200004b620000a760201b60201c565b620000af60201b60201c565b8160028190555080600360006101000a81548173ffffffffffffffffffffffffffffffffffffffff021916908373ffffffffffffffffffffffffffffffffffffffff160217905550505062000268565b600033905090565b60008060009054906101000a900473ffffffffffffffffffffffffffffffffffffffff169050816000806101000a81548173ffffffffffffffffffffffffffffffffffffffff021916908373ffffffffffffffffffffffffffffffffffffffff1602179055508173ffffffffffffffffffffffffffffffffffffffff168173ffffffffffffffffffffffffffffffffffffffff167f8be0079c531659141344cd1fd0a4f28419497f9722a3daafe3b4186f6b6457e060405160405180910390a35050565b600081519050620001848162000234565b92915050565b6000815190506200019b816200024e565b92915050565b60008060408385031215620001b557600080fd5b6000620001c5858286016200018a565b9250506020620001d88582860162000173565b9150509250929050565b6000620001ef826200020a565b9050919050565b60006200020382620001e2565b9050919050565b600073ffffffffffffffffffffffffffffffffffffffff82169050919050565b6000819050919050565b6200023f81620001f6565b81146200024b57600080fd5b50565b62000259816200022a565b81146200026557600080fd5b50565b611cfd80620002786000396000f3fe608060405234801561001057600080fd5b50600436106100ce5760003560e01c8063715018a61161008c5780638da5cb5b116100665780638da5cb5b146101ee57806396afc4501461020c578063b6b55f251461022a578063f2fde38b14610246576100ce565b8063715018a6146101be5780637a6b8ade146101c8578063853828b6146101e4576100ce565b8062456379146100d35780631959a002146100f15780631f8bc7901461012357806324e8cab31461015657806325ca4cff146101725780632e1a7d4d146101a2575b600080fd5b6100db610262565b6040516100e89190611a25565b60405180910390f35b61010b60048036038101906101069190611260565b610268565b60405161011a93929190611a69565b60405180910390f35b61013d60048036038101906101389190611315565b610292565b60405161014d949392919061185e565b60405180910390f35b610170600480360381019061016b9190611289565b6102f2565b005b61018c60048036038101906101879190611260565b6104ae565b6040516101999190611a25565b60405180910390f35b6101bc60048036038101906101b79190611315565b610542565b005b6101c66106b4565b005b6101e260048036038101906101dd919061133e565b61073c565b005b6101ec610973565b005b6101f6610a2e565b604051610203919061178b565b60405180910390f35b610214610a57565b6040516102219190611a25565b60405180910390f35b610244600480360381019061023f9190611315565b610a5d565b005b610260600480360381019061025b9190611260565b610c55565b005b60015481565b60056020528060005260406000206000915090508060000154908060010154908060020154905083565b600481815481106102a257600080fd5b90600052602060002090600402016000915090508060000160009054906101000a900473ffffffffffffffffffffffffffffffffffffffff16908060010154908060020154908060030154905084565b6102fa610d4d565b73ffffffffffffffffffffffffffffffffffffffff16610318610a2e565b73ffffffffffffffffffffffffffffffffffffffff161461036e576040517f08c379a000000000000000000000000000000000000000000000000000000000815260040161036590611985565b60405180910390fd5b8373ffffffffffffffffffffffffffffffffffffffff1663f242432a333086866040518563ffffffff1660e01b81526004016103ad94939291906117dd565b600060405180830381600087803b1580156103c757600080fd5b505af11580156103db573d6000803e3d6000fd5b50505050600460405180608001604052808673ffffffffffffffffffffffffffffffffffffffff16815260200185815260200184815260200183815250908060018154018082558091505060019003906000526020600020906004020160009091909190915060008201518160000160006101000a81548173ffffffffffffffffffffffffffffffffffffffff021916908373ffffffffffffffffffffffffffffffffffffffff160217905550602082015181600101556040820151816002015560608201518160030155505050505050565b600080600560008473ffffffffffffffffffffffffffffffffffffffff1673ffffffffffffffffffffffffffffffffffffffff1681526020019081526020016000206040518060600160405290816000820154815260200160018201548152602001600282015481525050905061053a61052782610d55565b8260400151610d9f90919063ffffffff16565b915050919050565b6000600560003373ffffffffffffffffffffffffffffffffffffffff1673ffffffffffffffffffffffffffffffffffffffff1681526020019081526020016000209050600082116105c8576040517f08c379a00000000000000000000000000000000000000000000000000000000081526004016105bf906118e5565b60405180910390fd5b818160000154101561060f576040517f08c379a000000000000000000000000000000000000000000000000000000000815260040161060690611965565b60405180910390fd5b610618336104ae565b8160020181905550610637828260000154610db590919063ffffffff16565b816000018190555061065482600154610db590919063ffffffff16565b6001819055504281600101819055506106b03383600360009054906101000a900473ffffffffffffffffffffffffffffffffffffffff1673ffffffffffffffffffffffffffffffffffffffff16610dcb9092919063ffffffff16565b5050565b6106bc610d4d565b73ffffffffffffffffffffffffffffffffffffffff166106da610a2e565b73ffffffffffffffffffffffffffffffffffffffff1614610730576040517f08c379a000000000000000000000000000000000000000000000000000000000815260040161072790611985565b60405180910390fd5b61073a6000610e51565b565b600060048381548110610778577f4e487b7100000000000000000000000000000000000000000000000000000000600052603260045260246000fd5b9060005260206000209060040201905060008160020154116107cf576040517f08c379a00000000000000000000000000000000000000000000000000000000081526004016107c6906119e5565b60405180910390fd5b6107e6828260030154610f1590919063ffffffff16565b6107ef336104ae565b1015610830576040517f08c379a0000000000000000000000000000000000000000000000000000000008152600401610827906119a5565b60405180910390fd5b6000600560003373ffffffffffffffffffffffffffffffffffffffff1673ffffffffffffffffffffffffffffffffffffffff16815260200190815260200160002090506108a461088d848460030154610f1590919063ffffffff16565b610896336104ae565b610db590919063ffffffff16565b81600201819055504281600101819055508160000160009054906101000a900473ffffffffffffffffffffffffffffffffffffffff1673ffffffffffffffffffffffffffffffffffffffff1663f242432a30338560010154876040518563ffffffff1660e01b815260040161091c94939291906117dd565b600060405180830381600087803b15801561093657600080fd5b505af115801561094a573d6000803e3d6000fd5b50505050610965838360020154610db590919063ffffffff16565b826002018190555050505050565b3273ffffffffffffffffffffffffffffffffffffffff163373ffffffffffffffffffffffffffffffffffffffff16146109e1576040517f08c379a00000000000000000000000000000000000000000000000000000000081526004016109d890611945565b60405180910390fd5b610a2c600560003373ffffffffffffffffffffffffffffffffffffffff1673ffffffffffffffffffffffffffffffffffffffff16815260200190815260200160002060000154610542565b565b60008060009054906101000a900473ffffffffffffffffffffffffffffffffffffffff16905090565b60025481565b3273ffffffffffffffffffffffffffffffffffffffff163373ffffffffffffffffffffffffffffffffffffffff1614610acb576040517f08c379a0000000000000000000000000000000000000000000000000000000008152600401610ac290611945565b60405180910390fd5b60008111610b0e576040517f08c379a0000000000000000000000000000000000000000000000000000000008152600401610b05906118c5565b60405180910390fd5b610b5d333083600360009054906101000a900473ffffffffffffffffffffffffffffffffffffffff1673ffffffffffffffffffffffffffffffffffffffff16610f2b909392919063ffffffff16565b6000600560003373ffffffffffffffffffffffffffffffffffffffff1673ffffffffffffffffffffffffffffffffffffffff16815260200190815260200160002090506000816000015414610bbe57610bb5336104ae565b81600201819055505b610bd382600154610d9f90919063ffffffff16565b600181905550610bf0828260000154610d9f90919063ffffffff16565b81600001819055504281600101819055503373ffffffffffffffffffffffffffffffffffffffff167f90890809c654f11d6e72a28fa60149770a0d11ec6c92319d6ceb2bb0a4ea1a158342604051610c49929190611a40565b60405180910390a25050565b610c5d610d4d565b73ffffffffffffffffffffffffffffffffffffffff16610c7b610a2e565b73ffffffffffffffffffffffffffffffffffffffff1614610cd1576040517f08c379a0000000000000000000000000000000000000000000000000000000008152600401610cc890611985565b60405180910390fd5b600073ffffffffffffffffffffffffffffffffffffffff168173ffffffffffffffffffffffffffffffffffffffff161415610d41576040517f08c379a0000000000000000000000000000000000000000000000000000000008152600401610d3890611905565b60405180910390fd5b610d4a81610e51565b50565b600033905090565b6000610d988260000151610d8a600254610d7c866020015142610db590919063ffffffff16565b610f1590919063ffffffff16565b610f1590919063ffffffff16565b9050919050565b60008183610dad9190611ae3565b905092915050565b60008183610dc39190611b93565b905092915050565b610e4c8363a9059cbb60e01b8484604051602401610dea929190611835565b604051602081830303815290604052907bffffffffffffffffffffffffffffffffffffffffffffffffffffffff19166020820180517bffffffffffffffffffffffffffffffffffffffffffffffffffffffff8381831617835250505050610fb4565b505050565b60008060009054906101000a900473ffffffffffffffffffffffffffffffffffffffff169050816000806101000a81548173ffffffffffffffffffffffffffffffffffffffff021916908373ffffffffffffffffffffffffffffffffffffffff1602179055508173ffffffffffffffffffffffffffffffffffffffff168173ffffffffffffffffffffffffffffffffffffffff167f8be0079c531659141344cd1fd0a4f28419497f9722a3daafe3b4186f6b6457e060405160405180910390a35050565b60008183610f239190611b39565b905092915050565b610fae846323b872dd60e01b858585604051602401610f4c939291906117a6565b604051602081830303815290604052907bffffffffffffffffffffffffffffffffffffffffffffffffffffffff19166020820180517bffffffffffffffffffffffffffffffffffffffffffffffffffffffff8381831617835250505050610fb4565b50505050565b6000611016826040518060400160405280602081526020017f5361666545524332303a206c6f772d6c6576656c2063616c6c206661696c65648152508573ffffffffffffffffffffffffffffffffffffffff1661107b9092919063ffffffff16565b9050600081511115611076578080602001905181019061103691906112ec565b611075576040517f08c379a000000000000000000000000000000000000000000000000000000000815260040161106c90611a05565b60405180910390fd5b5b505050565b606061108a8484600085611093565b90509392505050565b6060824710156110d8576040517f08c379a00000000000000000000000000000000000000000000000000000000081526004016110cf90611925565b60405180910390fd5b6110e1856111a7565b611120576040517f08c379a0000000000000000000000000000000000000000000000000000000008152600401611117906119c5565b60405180910390fd5b6000808673ffffffffffffffffffffffffffffffffffffffff1685876040516111499190611774565b60006040518083038185875af1925050503d8060008114611186576040519150601f19603f3d011682016040523d82523d6000602084013e61118b565b606091505b509150915061119b8282866111ba565b92505050949350505050565b600080823b905060008111915050919050565b606083156111ca5782905061121a565b6000835111156111dd5782518084602001fd5b816040517f08c379a000000000000000000000000000000000000000000000000000000000815260040161121191906118a3565b60405180910390fd5b9392505050565b60008135905061123081611c82565b92915050565b60008151905061124581611c99565b92915050565b60008135905061125a81611cb0565b92915050565b60006020828403121561127257600080fd5b600061128084828501611221565b91505092915050565b6000806000806080858703121561129f57600080fd5b60006112ad87828801611221565b94505060206112be8782880161124b565b93505060406112cf8782880161124b565b92505060606112e08782880161124b565b91505092959194509250565b6000602082840312156112fe57600080fd5b600061130c84828501611236565b91505092915050565b60006020828403121561132757600080fd5b60006113358482850161124b565b91505092915050565b6000806040838503121561135157600080fd5b600061135f8582860161124b565b92505060206113708582860161124b565b9150509250929050565b61138381611bc7565b82525050565b600061139482611aa0565b61139e8185611ac7565b93506113ae818560208601611c0f565b80840191505092915050565b60006113c582611aab565b6113cf8185611ad2565b93506113df818560208601611c0f565b6113e881611c71565b840191505092915050565b6000611400601283611ad2565b91507f4e6f7468696e6720746f206465706f73697400000000000000000000000000006000830152602082019050919050565b6000611440601383611ad2565b91507f4e6f7468696e6720746f207769746864726177000000000000000000000000006000830152602082019050919050565b6000611480602683611ad2565b91507f4f776e61626c653a206e6577206f776e657220697320746865207a65726f206160008301527f64647265737300000000000000000000000000000000000000000000000000006020830152604082019050919050565b60006114e6602683611ad2565b91507f416464726573733a20696e73756666696369656e742062616c616e636520666f60008301527f722063616c6c00000000000000000000000000000000000000000000000000006020830152604082019050919050565b600061154c602383611ad2565b91507f506c6561736520646f6e277420646f20776974682070726f787920636f6e747260008301527f61637400000000000000000000000000000000000000000000000000000000006020830152604082019050919050565b60006115b2601383611ad2565b91507f496e73756666696369656e74207374616b6564000000000000000000000000006000830152602082019050919050565b60006115f2602083611ad2565b91507f4f776e61626c653a2063616c6c6572206973206e6f7420746865206f776e65726000830152602082019050919050565b6000611632601383611ad2565b91507f496e73756666696369656e7420506f696e7473000000000000000000000000006000830152602082019050919050565b6000611672600083611ab6565b9150600082019050919050565b600061168c601d83611ad2565b91507f416464726573733a2063616c6c20746f206e6f6e2d636f6e74726163740000006000830152602082019050919050565b60006116cc600f83611ad2565b91507f416c6c204e465473206661726d656400000000000000000000000000000000006000830152602082019050919050565b600061170c602a83611ad2565b91507f5361666545524332303a204552433230206f7065726174696f6e20646964206e60008301527f6f742073756363656564000000000000000000000000000000000000000000006020830152604082019050919050565b61176e81611c05565b82525050565b60006117808284611389565b915081905092915050565b60006020820190506117a0600083018461137a565b92915050565b60006060820190506117bb600083018661137a565b6117c8602083018561137a565b6117d56040830184611765565b949350505050565b600060a0820190506117f2600083018761137a565b6117ff602083018661137a565b61180c6040830185611765565b6118196060830184611765565b818103608083015261182a81611665565b905095945050505050565b600060408201905061184a600083018561137a565b6118576020830184611765565b9392505050565b6000608082019050611873600083018761137a565b6118806020830186611765565b61188d6040830185611765565b61189a6060830184611765565b95945050505050565b600060208201905081810360008301526118bd81846113ba565b905092915050565b600060208201905081810360008301526118de816113f3565b9050919050565b600060208201905081810360008301526118fe81611433565b9050919050565b6000602082019050818103600083015261191e81611473565b9050919050565b6000602082019050818103600083015261193e816114d9565b9050919050565b6000602082019050818103600083015261195e8161153f565b9050919050565b6000602082019050818103600083015261197e816115a5565b9050919050565b6000602082019050818103600083015261199e816115e5565b9050919050565b600060208201905081810360008301526119be81611625565b9050919050565b600060208201905081810360008301526119de8161167f565b9050919050565b600060208201905081810360008301526119fe816116bf565b9050919050565b60006020820190508181036000830152611a1e816116ff565b9050919050565b6000602082019050611a3a6000830184611765565b92915050565b6000604082019050611a556000830185611765565b611a626020830184611765565b9392505050565b6000606082019050611a7e6000830186611765565b611a8b6020830185611765565b611a986040830184611765565b949350505050565b600081519050919050565b600081519050919050565b600082825260208201905092915050565b600081905092915050565b600082825260208201905092915050565b6000611aee82611c05565b9150611af983611c05565b9250827fffffffffffffffffffffffffffffffffffffffffffffffffffffffffffffffff03821115611b2e57611b2d611c42565b5b828201905092915050565b6000611b4482611c05565b9150611b4f83611c05565b9250817fffffffffffffffffffffffffffffffffffffffffffffffffffffffffffffffff0483118215151615611b8857611b87611c42565b5b828202905092915050565b6000611b9e82611c05565b9150611ba983611c05565b925082821015611bbc57611bbb611c42565b5b828203905092915050565b6000611bd282611be5565b9050919050565b60008115159050919050565b600073ffffffffffffffffffffffffffffffffffffffff82169050919050565b6000819050919050565b60005b83811015611c2d578082015181840152602081019050611c12565b83811115611c3c576000848401525b50505050565b7f4e487b7100000000000000000000000000000000000000000000000000000000600052601160045260246000fd5b6000601f19601f8301169050919050565b611c8b81611bc7565b8114611c9657600080fd5b50565b611ca281611bd9565b8114611cad57600080fd5b50565b611cb981611c05565b8114611cc457600080fd5b5056fea2646970667358221220fb2981d4889c13da2209a79873812334cb9fb941d0411937f2ba6f63da4a2ee764736f6c63430008000033",
  "linkReferences": {},
  "deployedLinkReferences": {}
}